:020000040800F2
:100000009806002089010008DD1100085D0C000839
:10001000D911000891020008F11100080000000049
:10002000000000000000000000000000E5110008D2
:100030009502000800000000E1110008E911000825
:10004000A3010008A3010008A3010008A301000800
:10005000A3010008A3010008A3010008A3010008F0
:10006000A3010008A3010008A3010008A3010008E0
:10007000A3010008A3010008A3010008A3010008D0
:10008000A3010008A3010008A3010008A3010008C0
:10009000A3010008A3010008A3010008A3010008B0
:1000A000A3010008A3010008A3010008A3010008A0
:1000B000A3010008A3010008A3010008A301000890
:1000C000A3010008A3010008A3010008A301000880
:1000D000A3010008A3010008A3010008A301000870
:1000E00099020008A3010008A301000800F002F82B
:1000F00000F03AF80AA090E8000C82448344AAF188
:100100000107DA4501D100F02FF8AFF2090EBAE885
:100110000F0013F0010F18BFFB1A43F0010318473B
:10012000D81B0000F81B0000103A24BF78C878C123
:10013000FAD8520724BF30C830C144BF04680C60ED
:10014000704700000023002400250026103A28BF35
:1001500078C1FBD8520728BF30C148BF0B60704739
:100160001FB51FBD10B510BD00F058F81146FFF7C0
:10017000F7FF01F06BF900F076F803B4FFF7F2FF38
:1001800003BC00F07DF8000009488047094800479B
:10019000FEE7FEE7FEE7FEE7FEE7FEE7FEE7FEE737
:1001A000FEE7FEE704480549054A064B7047000094
:1001B000ED110008ED0000089800002098060020CE
:1001C00098020020980200204FF0000200B513466C
:1001D00094469646203922BFA0E80C50A0E80C5067
:1001E000B1F12001BFF4F7AF090728BFA0E80C5018
:1001F00048BF0CC05DF804EB890028BF40F8042B11
:1002000008BF704748BF20F8022B11F0804F18BF7D
:1002100000F8012B7047704770477047754600F033
:100220002BF8AE4605006946534620F00700854688
:1002300018B020B5FFF7B6FFBDE820404FF000062C
:100240004FF000074FF000084FF0000BAC46ACE851
:10025000C009ACE8C009ACE8C009ACE8C00921F0AD
:1002600007018D46704710B50446AFF30080204665
:10027000BDE81040FFF781BF00487047180000201C
:1002800001491820ABBEFEE72600020070470000BF
:10029000FEE700007047000080B540F60000C4F2A1
:1002A00001004FF4806100F03DF94FF40060BDE8BB
:1002B000804000F017B80000B0B5044600F040F9E7
:1002C000054640F20000C2F200000078611C18BF31
:1002D000044400BF00F034F9401BA042FAD3B0BD83
:1002E0007047000040F21441C4F201010A68024262
:1002F00014BF08607047FFF7F3BF00002DE9F04F0F
:1003000082B00E68002E00F0038140F20C4C41F2E6
:1003100000424FF6FF7EC4F2010CC4F20102042732
:1003200000240123C1F2100E4FF0000A4FF0000923
:10033000904208BF0327009745E000BF012704F063
:100340000C030F229A402BEA020207FA03F34FEA4A
:100350009A051A4346F82520D1F804B040F200452A
:10036000C4F201055FEACB322A6854BF22EA0802D0
:1003700042EA08022A606A685FEA8B3354BF22EAC5
:10038000080242EA08026A605FEACB23AA6854BF07
:1003900022EA080242EA08025FEA8B23AA60DCF83C
:1003A00000204FF0010354BF22EA080242EA08028B
:1003B000CCF800200E680AF1010A36FA0AF204F1BC
:1003C000040400F0A58003FA0AF816EA080FF1D039
:1003D0004E68764512DC122E56D8DFE806F0350B53
:1003E0004549555555555555555555555555554DE1
:1003F000510000BFD1F80C9046E000BF4FF6FF72ED
:10040000C1F2210296420FDC0022C1F21102964293
:100410001AD00022C1F21202964215D00022C1F277
:100420002102964210D02FE00022C1F22202964211
:100430000AD00022C1F23102964205D00022C1F258
:100440003202964220D100BF8A684AB1012A14BF05
:10045000C0F81480C0F810804FF0080914E000BF05
:100460004FF0040910E000BFCA6802F108090BE070
:100470004FF0000908E000BFCA6802F1040903E078
:10048000CA6802F10C0900BF22460646BAF1080FFD
:1004900024BF203A043637680F25954027EA050522
:1004A00009FA02F22A433260CA79D2067FF582AF96
:1004B00041F21803C4F202031A6842F001021A6002
:1004C0001A6802F001020192019A40F20042C4F25D
:1004D0000102A2F57E762AF0030256F802B040F639
:1004E0000002C4F20102904210D040F60042C4F271
:1004F000010290423FF422AF41F20002C4F2010235
:10050000009F904208BF022719E700BF002716E7A7
:1005100002B0BDE8F08F00008068084018BF0120DD
:1005200070470000C26802EA0103914341EA0341B7
:1005300001617047002A08BF09040161704700008B
:1005400040F29000C2F200000068704740F20000E4
:1005500040F29001C2F20000C2F2000100780A6885
:10056000104408607047000080B542F20000C4F2F9
:100570000200016841F010010160032000F08EF8D4
:100580000F2000F005F800F027F8002080BD0000E3
:1005900070B540F20006C2F2000640F2080132785F
:1005A000C2F200014FF47A730968B3FBF2F2044619
:1005B000B1FBF2F1084600F03BFB0F2C4FF00105B8
:1005C00008D838B94FF0FF3021460022002500F04E
:1005D00039F87460284670BD82B041F21800C4F248
:1005E00002000168022241F001010160016801F08E
:1005F000010101910199416841F0805141604068D9
:1006000000F08050009000980420C4F201000168BE
:1006100062F31A61016002B070470000002848BF11
:100620007047C1B200F01F00012202FA00F04EF242
:100630000012CEF2000242EAD10121F0030108606B
:100640007047000010B54EF60C5CCEF2000CDCF8E2
:100650000030C3F3022E8EF00704042C28BF0424BC
:10066000BEF103034FF0FF3E0EFA04F438BF00233F
:10067000A14399400EFA03F39A43114300F00F028D
:1006800000F160430901043A03F564436244002821
:1006900048BF02F10C03197010BD00004EF60C515A
:1006A000CEF200010A684FF6FF031A4060F30A22F7
:1006B00042F0806040F0FD70086070472DE9F04323
:1006C00081B0002800F0858042F20008C4F20208E0
:1006D0000446D8F800000D4600F0070088420CD20E
:1006E000D8F8000020F007002843C8F80000D8F828
:1006F000000000F00700A8426BD1206841F2040915
:100700008107C4F2020917D5410705D5D9F80010B1
:1007100041F4E061C9F80010010705D5D9F80010CF
:1007200041F46051C9F80010D9F80010A26821F016
:10073000F0011143C9F80010C00741D1D8F80000FA
:1007400000F00700A8420CD9D8F8000020F00700FC
:100750002843C8F80000D8F8000000F00700A842BD
:1007600037D12068410707D5D9F80010E26821F495
:10077000E0611143C9F80010000708D5D9F800005E
:10078000216920F4605040EAC100C9F80000D9F89E
:10079000002002F00C00082841F20020C0F27A008C
:1007A00050D141F6CD43C2F38341C0F60003595CFA
:1007B000D2033BD440F60010C0F23D00484341E074
:1007C000606802280AD001282AD159F8041C89033C
:1007D00008D4012001B0BDE8F08300BF59F8041C23
:1007E0008901F6D5D9F8001021F003010843C9F8B2
:1007F0000000FFF7A5FE064641F28837D9F8000051
:10080000616800F00C00B0EB810F97D0FFF798FE05
:10081000801BB842F2D9032001B0BDE8F08300BFCD
:1008200059F8041C8907D4D5DCE700BFD9F80020AB
:1008300041F6AA43C2F34042C0F600039A5C484323
:10084000B0FBF2F0D9F8001041F6BD42C1F303113C
:10085000C0F60002515C40F2080220FA01F140F2B9
:100860000400C2F200000068C2F200021160FFF74B
:100870008FFE002001B0BDE8F08300002DE9F041BB
:1008800082B0002868D00446007841F20006C00714
:10089000C4F2020625D0706800F00C0004281BD0BA
:1008A000706800F00C00082802D17068C00313D4EF
:1008B0006068002800F06881B0F5A02F00F07C810E
:1008C000B0F5803F00F07C81306820F480303060EB
:1008D000306820F4802076E13068800301D56068BC
:1008E000D0B32078800718D5706810F00C0F07D0AF
:1008F000706800F00C0008286ED17068C0036BD4DB
:100900003068800702D52069012825D130686169E7
:1009100020F0F80040EAC1003060207800071FD4C2
:100920002078400732D4E56995B1706800F00C007A
:10093000082840F08F80012D0ED07068216A00F4E5
:1009400080328A4208D1616A00F47010884203D173
:10095000002002B0BDE8F081012002B0BDE8F081C6
:10096000A069002862D00020C4F242200121C0F812
:100970008014FFF7E5FD0546706A800700F18C8062
:10098000FFF7DEFD401B0228F6D92AE1F06910F0DE
:10099000805808D1F06940F08050F061F06900F0B3
:1009A00080500090009847F20007C4F200073868B2
:1009B000C00529D4386840F480703860FFF7C0FD66
:1009C000054600BF3868C0051ED4FFF7B9FD401BBF
:1009D0006428F7D905E100BF2069002840F2000033
:1009E000C4F2422000F0828001210160FFF7A8FDDF
:1009F000054600BF306880073FF588AFFFF7A0FDD0
:100A0000401B0228F6D9ECE0E068002800F0808066
:100A1000052800F09780012800F09880306A20F0C7
:100A200001003062306A20F0040092E00020C4F23D
:100A300042200021C0F88014FFF782FD054600BF68
:100A4000706A80077FF56CAFFFF77AFD401B0228C4
:100A5000F6D9C6E00027C4F2422700203866FFF727
:100A60006FFD022D05460BD13068800140F1BE803C
:100A7000FFF766FD401B02284FF00300F4D968E73A
:100A8000306880017FF564AFFFF75AFD401B0228F4
:100A90004FF00300F4D95CE740F20800C2F2000016
:100AA000006844F6D351C1F26201A0FB0101480A7B
:100AB000019000BF00BF0198411E002801913FF442
:100AC0002FAF00BF0198411E002801913FF428AFCD
:100AD00000BF0198411E002801913FF421AF00BFE3
:100AE0000198411E00280191E4D119E7002101601D
:100AF000FFF726FD054600BF306880077FF50DAF84
:100B0000FFF71EFD401B02284FF00300F4D920E739
:100B1000306A20F001003062306A20F00400306258
:100B2000FFF70EFD054641F2883700BF306A8007A7
:100B300020D5FFF705FD401BB8424FF00300F5D963
:100B400007E700BF306A40F004003062306A40F0CE
:100B500001003062FFF7F4FC054641F2883700BF20
:100B6000306A800706D4FFF7EBFC401BB842F7D988
:100B700037E000BFB8F1000F7FF4D5AEF06920F088
:100B80008050F061CFE600BF306820F480303060E4
:100B9000306820F480203060FFF7D2FC054600BFAB
:100BA000306880037FF59DAEFFF7CAFC401B6428C8
:100BB0004FF00300F4D9CCE6306840F48020306078
:100BC000306840F480303060FFF7BAFC054600BF63
:100BD000306880033FF585AEFFF7B2FC401B642808
:100BE000F6D9032002B0BDE8F08100BF206AB0F55D
:100BF000803F05D17168A26821F400311143716012
:100C00007168626A21F47411114308437060012015
:100C10003866FFF795FC0446306880013FF598AED2
:100C2000FFF78EFC001B02284FF00300F4D990E67A
:100C3000411E0020B0EB116F1CBF012070474EF227
:100C40001002CEF2000251604EF62351CEF20001A6
:100C5000F0230B700721906011607047FEE70000E1
:100C6000F0B581B040F60044C4F2010420462021D2
:100C70000022FFF75FFC204640210022FFF75AFCCC
:100C8000204680210022FFF755FC20464FF480715A
:100C90000022FFF74FFC20460121FFF73DFC0746ED
:100CA00020460221FFF738FC054620460821FFF7C1
:100CB00033FC064620461021FFF72EFC002F18BFFC
:100CC000002D40F0DD809620FFF7F6FA2046202127
:100CD0000122FFF72FFC204640210122FFF72AFCCA
:100CE000204680210122FFF725FC20464FF4807129
:100CF0000122FFF71FFC2046202100220025FFF7DC
:100D000019FC20460121FFF707FC002800F0C280F3
:100D100020460221FFF700FC002800F0BD8020469D
:100D20000821FFF7F9FB002800F0B88020461021C9
:100D3000FFF7F2FB002800F0B380204620210122BB
:100D40000125FFF7F7FB204640210122FFF7F2FBC8
:100D5000204680210122FFF7EDFB20464FF48071F1
:100D60000122FFF7E7FB2046402100220026FFF783
:100D7000E1FB20460121FFF7CFFB002800F0928025
:100D800020460221FFF7C8FB002800F09180204692
:100D90000821FFF7C1FB002800F08E8020461021BB
:100DA000FFF7BAFB002800F08B80204620210122AB
:100DB000FFF7C0FB204640210122FFF7BBFB204686
:100DC00080210122FFF7B6FB20464FF480710122FB
:100DD000FFF7B0FB2046802100220026FFF7AAFB88
:100DE00020460121FFF798FB00286DD02046022104
:100DF0000225FFF791FB002868D020460821FFF765
:100E00008BFB002864D020461021FFF785FB0028CB
:100E100062D0204620210122FFF78CFB2046402192
:100E20000122FFF787FB204680210122FFF782FB8A
:100E300020464FF480710122FFF77CFB20464FF4DF
:100E4000807100220026FFF775FB20460121FFF785
:100E500063FB002844D020460221FFF75DFB0028F9
:100E600040D020460821FFF757FB00283ED02046FF
:100E70001021FFF751FB48B90325032612E000BFFC
:100E8000002E3FF420AF00283FF41DAF6E2001B0CC
:100E9000F0BD00BF002605E0012602E0022600E0CA
:100EA0000326002513A000EB8500805D01B0F0BD96
:100EB00001250126F6E700BF02260125F2E700BF63
:100EC00003260125EEE700BF0225EBE70126E9E74F
:100ED00002250226E6E700BF03260225E2E700BF5F
:100EE0000325DFE701260325DCE700BF02260325F3
:100EF000D8E700BF3738392F3435362A3132332D11
:100F000043303D2B80B5012000F0E4F80220BDE81D
:100F10008040FFF7D1B90000B0B5054640F600406B
:100F20000C46C4F201004FF400710022FFF702FBEF
:100F300045B1012D18BFB0BDC0202044BDE8B04070
:100F400000F0C8B880202044BDE8B04000F0C2B82E
:100F500010B540F60044C4F2010420464FF480511D
:100F60000022FFF7E7FA20464FF400510022FFF776
:100F7000E1FA20464FF480410022FFF7DBFA2046D9
:100F80004FF400410022FFF7D5FA20464FF40071DC
:100F90000022FFF7CFFA20464FF480510122FFF7DD
:100FA000C9FA20464FF400510122FFF7C3FA204648
:100FB0004FF480410022FFF7BDFA20464FF4004174
:100FC0000022FFF7B7FA20464FF480610122FFF7B5
:100FD000B1FA0120FFF770F920464FF4806100223A
:100FE000FFF7A8FA0120FFF767F920464FF4806168
:100FF0000122FFF79FFA0120FFF75EF920464FF428
:1010000080610022FFF796FA0120FFF755F920468C
:101010004FF480610122FFF78DFA0120FFF74CF9B0
:1010200020464FF480610022FFF784FA0120FFF789
:1010300043F920464FF480510022FFF77BFA204607
:101040004FF400510122FFF775FA20464FF480411A
:101050000022FFF76FFA20464FF400410022FFF70D
:1010600069FA20464FF480610122FFF763FA0120FC
:10107000FFF722F920464FF480610022FFF75AFA69
:101080000120FFF719F9282000F024F80C2000F0C7
:1010900021F8062000F01EF80120BDE8104000F005
:1010A00019B80000B0B540F60045C4F20105044689
:1010B00028464FF400710122FFF73CFA204600F069
:1010C00009F828464FF400710022BDE8B040FFF750
:1010D00031BA0000B0B540F60044C4F20104054640
:1010E000C0F3001220464FF48051FFF723FAC5F3F6
:1010F000401220464FF40051FFF71CFAC5F380124E
:1011000020464FF48041FFF715FAC5F3C012204680
:101110004FF40041FFF70EFA20464FF480610122A0
:10112000FFF708FA0120FFF7C7F820464FF4806167
:101130000022FFF7FFF90120FFF7BEF805F00102DA
:1011400020464FF48051FFF7F5F9C5F340022046E1
:101150004FF40051FFF7EEF9C5F3800220464FF43B
:101160008041FFF7E7F9C5F3C00220464FF4004184
:10117000FFF7E0F920464FF480610122FFF7DAF92A
:101180000120FFF799F820464FF480610022FFF715
:10119000D1F90120BDE8B040FFF78EB870B50578F1
:1011A000002D08BF70BD40F60044C4F20104461E85
:1011B00020464FF400710122FFF7BCF92846FFF7E3
:1011C00089FF20464FF400710022FFF7B3F9B5788C
:1011D0000136002DECD170BDFEE70000FEE70000F7
:1011E0007047000070470000FFF7B0B9704700007B
:1011F000FEE700002DE9F04140F278070FF2D00839
:10120000C2F2000736A53AA608E000BFD7E90010F1
:10121000BC602044814208BFBDE8F081FFF772FE48
:101220004046FFF7BBFFFFF71BFD002402E000BFB5
:10123000FFF716FD3D280FD0A0F13001C9B20929F2
:10124000F6D8C0B204EB840100EB4101A1F13004F7
:10125000FFF728FFECE700BF3C60FFF753FE28468E
:10126000FFF79CFFFFF7FCFC002401E0FFF7F8FC10
:101270003D280FD0A0F13001C9B20929F6D8C0B27B
:1012800004EB840100EB4101A1F13004FFF70AFFF8
:10129000ECE700BF7C60FFF735FE3046FFF77EFFCE
:1012A000FFF7DEFC002401E0FFF7DAFC3D28ADD0BB
:1012B000A0F13001C9B20929F6D8C0B204EB84010B
:1012C00000EB4101A1F13004FFF7ECFEECE700BFB9
:1012D0004E6861702064656E20646F3A0000000003
:1012E0004E6861702064656E2078616E683A000017
:1012F0004E6861702064656E2076616E673A00000A
:10130000002818BF7047B0B540F60044C4F201048D
:10131000204604210122FFF70DF940F20C05C2F22C
:101320000005287800F0AEFB012000F021FB012031
:10133000FEF7C2FF204604210022FFF7FBF82046FB
:1013400004210122FFF7F6F8687800F09BFB0220E9
:1013500000F00EFB0120FEF7AFFF20460421002223
:10136000FFF7E8F8204604210122FFF7E3F8A87808
:1013700000F088FB042000F0FBFA0120FEF79CFF40
:10138000204604210022FFF7D5F82046042101223F
:10139000FFF7D0F8E87800F075FB082000F0E8FAD5
:1013A0000120FEF789FF204604210022FFF7C2F842
:1013B000204604210122FFF7BDF8287900F062FBE6
:1013C000102000F0D5FA0120FEF776FF2046042118
:1013D0000022FFF7AFF8204604210122FFF7AAF808
:1013E000687900F04FFB202000F0C2FA0120FEF7E0
:1013F00063FF204604210022FFF79CF820460421C9
:101400000122FFF797F8A87900F03CFB402000F09C
:10141000AFFA0120FEF750FF204604210022FFF71B
:1014200089F8204604210122FFF784F8E87900F0CA
:1014300029FB802000F09CFA0120FEF73DFF2046AA
:1014400004210022BDE8B040FFF774B890B0FFF768
:101450008BF806AC201D2421FEF7B6FE0220069074
:1014600001200A9010200B90002520460D95FFF7D3
:1014700005FA28B1EFF3108072B600BFFEE700BF97
:101480000F20CDE9010501A80021CDE903550595FF
:10149000FFF714F920B1EFF3108072B6FEE700BF3A
:1014A00041F21800C4F20200016840F6000441F065
:1014B000040101600168C4F2010401F00401069115
:1014C00006990168002241F008010160006840F2BD
:1014D000FF7100F008000690069820464FF00008C3
:1014E000FFF728F804F5806630464FF2E0710022DD
:1014F0004FF2E079FFF71EF840F2FF30069003202C
:1015000006AD0127099020462946CDE90778FEF768
:10151000F5FE1B20CDE90608304629460897FEF760
:10152000EDFECDE906974FF0020930462946CDF889
:101530002080CDF82490FEF7E1FE4FF4806006A9EC
:1015400081E8810320462946FEF7D8FE4FF400606B
:1015500006900020C1F22100CDE907072046294668
:10156000FEF7CCFE282000210022FFF76BF8282090
:10157000FFF754F8FFF7ECFC4FF4FA70FEF79CFE0F
:10158000FFF738FEFFF7BEFC41F6EA40C0F6000068
:10159000FFF704FE01200021FFF7BEFC41F6DD400D
:1015A000C0F60000FFF7FAFD40F2780746F26769DF
:1015B00041F6AC4AC2F20007C6F26669C0F6000AFC
:1015C00006E000BFBA6811448842A8BFC7F80C8083
:1015D00020464FF48061FEF79FFF012840F08E8186
:1015E000F8687A68002865D4904263DA20460121C1
:1015F0000122FEF79FFF204602210022FEF79AFFFC
:10160000204604210022FEF795FF204608210022F3
:10161000FEF790FF204610210022FEF78BFF2046A8
:1016200020210122FEF786FF20464FF4007101229F
:10163000FEF780FFF968D7E900020131431A83FB06
:101640000906B01000EBD67606EB8600A3EB40004F
:101650001AF80000551AC7E903157B6100F09CFADF
:101660001AF8060000F098FA85FB0901881000EBD3
:10167000D17606EB8600A5EB40001AF8000000F0DA
:101680008BFA1AF8060000F087FA20464FF48071B2
:101690000122FEF74FFF20464FF480710022FEF733
:1016A00049FF0020FFF72CFE4FF47A70FEF704FE8E
:1016B0007A68F868396890425CDB88425ADA2046DA
:1016C00001210022FEF736FF204602210122FEF70B
:1016D00031FF204604210022FEF72CFF204608217E
:1016E0000022FEF727FF204610210022FEF722FFEE
:1016F000204620210122FEF71DFF20464FF40071F5
:101700000022FEF717FFF968D7E901020131521AEA
:10171000104480FB0923C7E90310991001EBD3762D
:1017200006EB8601A0EB41011AF8015078612846CA
:1017300000F032FA1AF80660304600F02DFA28461A
:1017400000F02AFA304600F027FA20464FF4807164
:101750000122FEF7EFFE20464FF480710022FEF7D3
:10176000E9FE0020FFF7CCFD4FF47A70FEF7A4FDF0
:101770003968F868884260DB7A680A4490425CDA2B
:10178000204601210022FEF7D5FE2046022100223C
:10179000FEF7D0FE204604210122FEF7CBFE2046B4
:1017A00008210122FEF7C6FE204610210022FEF786
:1017B000C1FE204620210022FEF7BCFEF968D7E9D1
:1017C00000020131521A024482FB0936431A1D18E5
:1017D000B01000EBD67606EB8600A2EB40001AF8BC
:1017E0000000C7E903157A6100F0D6F91AF806007F
:1017F00000F0D2F985FB0901881000EBD17606EBE9
:101800008600A5EB40001AF8000000F0C5F91AF8B0
:10181000060000F0C1F920464FF480710122FEF766
:1018200089FE20464FF480710022FEF783FE4FF4BC
:101830007A70FEF741FD3968F8687A681144884289
:10184000FFF6C0AEBA680A449042BFF6BBAE20466F
:1018500001210022FEF76EFE204602210022FEF743
:1018600069FE204604210122FEF764FE204608217D
:101870000022FEF75FFE204610210122FEF75AFEED
:10188000204620210022FEF755FEFA6897E80B005B
:10189000D64333441944084480FB0913511CC7E95B
:1018A0000310991001EBD37606EB8601A0EB410102
:1018B0001AF801507861284600F06EF91AF80660AF
:1018C000304600F069F9284600F066F9304600F02D
:1018D00063F920464FF480710122FEF72BFE20466B
:1018E0004FF480710022FEF725FE4FF47A70FEF768
:1018F000E3FCD7E90012F868114463E620460221B0
:10190000FEF710FE20461021FEF70CFE20460121B6
:101910000022FEF70FFE204604210022FEF70AFEF9
:10192000204608210022FEF705FE20462021002245
:10193000FEF700FEC02000F02FF9C02000F02CF9C7
:10194000C02000F029F9C02000F026F920464FF40D
:1019500080710122FEF7EEFD20464FF480710022D7
:10196000FEF7E8FD4FF47A70FEF7A6FC30E60000C3
:1019700070B540F60044C4F20104054600F0800250
:1019800020460221FEF7D6FD204601210122FEF766
:10199000D1FD204601210022FEF7CCFD802606EA7B
:1019A000450220460221FEF7C5FD20460121012205
:1019B000FEF7C0FD204601210022FEF7BBFD06EA2E
:1019C000850220460221FEF7B5FD204601210122B5
:1019D000FEF7B0FD204601210022FEF7ABFD06EA2E
:1019E000C50220460221FEF7A5FD20460121012265
:1019F000FEF7A0FD204601210022FEF79BFD06EA2E
:101A0000051220460221FEF795FD20460121012204
:101A1000FEF790FD204601210022FEF78BFD06EA2D
:101A2000451220460221FEF785FD204601210122B4
:101A3000FEF780FD204601210022FEF77BFD06EA2D
:101A4000851220460221FEF775FD20460121012264
:101A5000FEF770FD204601210022FEF76BFDE80134
:101A6000C2B220460221FEF765FD20460121012277
:101A7000FEF760FD204601210022BDE87040FEF720
:101A800059BD000070B540F60044C4F2010405469B
:101A900000F0800220461021FEF74CFD2046082170
:101AA0000122FEF747FD204608210022FEF742FDF5
:101AB000802606EA450220461021FEF73BFD20461F
:101AC00008210122FEF736FD204608210022FEF7FC
:101AD00031FD06EA850220461021FEF72BFD204647
:101AE00008210122FEF726FD204608210022FEF7EC
:101AF00021FD06EAC50220461021FEF71BFD204607
:101B000008210122FEF716FD204608210022FEF7DB
:101B100011FD06EA051220461021FEF70BFD2046B6
:101B200008210122FEF706FD204608210022FEF7CB
:101B300001FD06EA451220461021FEF7FBFC204677
:101B400008210122FEF7F6FC204608210022FEF7BC
:101B5000F1FC06EA851220461021FEF7EBFC204638
:101B600008210122FEF7E6FC204608210022FEF7AC
:101B7000E1FCE801C2B220461021FEF7DBFC204662
:101B800008210122FEF7D6FC204608210022BDE8EC
:101B90007040FEF7CFBC000070B540F60004C4F200
:101BA0000104054600F0800220464021FEF7C2FCF9
:101BB0002046802101228026FEF7BCFC20468021A1
:101BC0000022FEF7B7FC06EA450220464021FEF758
:101BD000B1FC204680210122FEF7ACFC204680218A
:101BE0000022FEF7A7FC06EA850220464021FEF708
:101BF000A1FC204680210122FEF79CFC204680218A
:101C00000022FEF797FC06EAC50220464021FEF7B7
:101C100091FC204680210122FEF78CFC2046802189
:101C20000022FEF787FC06EA051220464021FEF757
:101C300081FC204680210122FEF77CFC2046802189
:101C40000022FEF777FC06EA451220464021FEF707
:101C500071FC204680210122FEF76CFC2046802189
:101C60000022FEF767FC06EA851220464021FEF7B7
:101C700061FC204680210122FEF75CFC2046802189
:101C80000022FEF757FCE801C2B220464021FEF7D1
:101C900051FC204680210122FEF74CFC2046802189
:101CA0000022BDE87040FEF745BC0102C0F9A4B0B7
:101CB000999282F880908883C6A1868E8F0000005A
:101CC00000000000000102030406070809020304E3
:101CD00005060708090A0B0C0D0E0F101043687556
:101CE0006F6E67207472696E68004261742064616F
:101CF0007520636861790000181D0008000000204D
:101D00001800000028010008301D000818000020FD
:101D100080060000440100080100000010000000DF
:101D20000024F400F6ECD90303D9ECF6000000001F
:04000005080000ED02
:00000001FF
